:020000040800F2
:10000000201800208D030008950300083D03000818
:10001000990300089B0300089D03000800000000EE
:100020000000000000000000000000009F03000826
:10003000A103000800000000BF02000847580008A4
:10004000A7030008A7030008A7030008A7030008E8
:10005000A7030008A703000873330008C53300088E
:10006000D9330008ED33000801340008A703000865
:10007000A7030008A7030008A7030008A7030008B8
:10008000A7030008A7030008A7030008BD5E000837
:10009000595F0008613200087D32000815340008FD
:1000A000A7030008A7030008A7030008A703000888
:1000B000A7030008A703000809590008A7030008C0
:1000C000A7030008A7030008A7030008A703000868
:1000D000A7030008A55E0008A7030008A7030008FF
:1000E00087330008A7030008A703000800F002F800
:1000F00000F0B6F80AA090E8000C82448344AAF10C
:100100000107DA4501D100F0ABF8AFF2090EBAE809
:100110000F0013F0010F18BFFB1A43F0010318473B
:10012000ACE90000CCE900000A444FF0000C10F8E4
:10013000013B13F0070408BF10F8014B1D1108BF65
:1001400010F8015B641E05D010F8016B641E01F805
:10015000016BF9D113F0080F1EBF10F8014BAD1C55
:100160000C1B09D16D1E58BF01F801CBFAD505E073
:1001700014F8016B01F8016B6D1EF9D59142D6D3CD
:10018000704700000023002400250026103A28BFF5
:1001900078C1FBD8520728BF30C148BF0B607047F9
:1001A0006E2900F06B84702900F0CD8766290DF070
:1001B000B48765290DF0B18767290DF0AE876129F5
:1001C0000DF0AD8703681B0A28BF41F08001692943
:1001D00000F01884642900F01584752900F0128459
:1001E0006F2900F05A87782900F09987E92900F0F3
:1001F000F586E42900F0F286F52900F0EF86EF2974
:1002000000F05787F82900F098870368DB0928BFBA
:1002100041F08001632901F06B82732901F0708243
:10022000E32901F07B82F32901F0808200207047EE
:100230001FB500F0E5FF0400002000210DF034F8A8
:10024000401C6060002000210DF044F8E06001F0E7
:1002500003FBAFF300801FBD10B501F066FB10BDBE
:1002600001F0BAFB1146FFF7E3FF02F08EFF01F049
:10027000D5FF03B4FFF7F0FF03BC06F01FFD00003D
:10028000002804D090FAA0F0B0FA80F0401C70472B
:10029000EFF3108072B6704780F310887047344ACD
:1002A0001368012B04D04FF001031360314A106032
:1002B000314A116031484FF0805101607047EFF3CF
:1002C000108272B62A48016891B14FF000010160B6
:1002D0002848016829B1EFF3098121E9F00F00688E
:1002E0000160254909680968B1E8F00F81F30988C0
:1002F00082F310884EF0040E70471F4908601D49B4
:100300004FF0000008601A494FF0010008601C48D7
:100310001C49D0F8002041EA0201016017484FF063
:100320008051016018480068006880F3088861B651
:1003300062B6BFF34F8FBFF36F8F70471EF0040F8D
:100340000CBFEFF30880EFF3098020E9F00F40F8CD
:1003500004ED1EF0040F0CBF80F3088880F30988B9
:1003600000B509F06FFC5DF804EB4EF0040E704729
:10037000340000202C0000203000002004ED00E0BC
:1003800020ED00E00000FFFF08ED00E00948804795
:1003900009480047FEE7FEE7FEE7FEE7FEE7FEE767
:1003A000FEE7FEE7FEE7FEE704480549034A054B82
:1003B0007047000005590008ED00000820140020D7
:1003C000201800202014002070477047704753EA1F
:1003D000020C00F069802DE9F04B4FF00006002B75
:1003E0001FBFB3FA83F503FA05F424FA05F65E405D
:1003F00012BF1643B2FA82F502FA05F4C5F12005E0
:100400001EBF22FA05FC44EA0C04203556EA044CCF
:100410004FEA144418BF641C4FF000084FF0000965
:10042000904271EB030C39D3002919BFB1FA81F75F
:1004300001FA07F6B0FA80F700FA07F6C7F12007CD
:100440001EBF20FA07FC46EA0C062037B6FBF4FC78
:10045000A7EB0507103F07F01F0BCBF120060CFAA6
:100460000BFB2CFA06F644BFB3460026202FA4BF90
:100470005E464FF0000B5BEA060C08BF4FF0010B25
:1004800019EB0B09ABFB027C48EB0608C01B06FB13
:1004900002CC0BFB03CC71EB0C01C1E70B4602460F
:1004A00041464846BDE8F08B13B54FF000004FF0D1
:1004B0000001AFF30080BDE81C4070471CB50C463E
:1004C000064B7B4469460090204600F0FEFC044643
:1004D0000020694600F00CFD20461CBD2B0A0000E0
:1004E0000FB4044910B503AA029800F007FD10BC30
:1004F0005DF814FB141300202DE9F05F89460446D3
:100500004FF0000ADFF874B1FB44C0F820A0204689
:10051000E1688847002874D0252806D0D4E9012155
:100520009047206A401C2062F1E700265F46204683
:10053000E16888472028054607DB312D05D2781968
:1005400010F8200C08B10643F1E7B00701D526F0FA
:100550000406C4F81CA00027C4F818A02A2D09D04E
:10056000284606F05FFA38B304EB8708303DC8F838
:10057000185019E059F8041B204604EB87029161DA
:10058000E1688847012F054618D1E069002820DA84
:1005900026F020061DE0D8F8180000EB800005EBDF
:1005A00040003038C8F818002046E1688847054602
:1005B00006F038FA0028EED1012F0AD02E2D08D1EE
:1005C0002046E16888477F1C0546022F46F020063A
:1005D000C4DBA069002803DA404246F00106A061AE
:1005E000F00701D026F010066C2D0BD0682D09D035
:1005F0004C2D39D06A2D35D0742D35D07A2D33D08D
:1006000016E038E0E1682F4620468847B8420546A4
:1006100009D16C2F26D04FF48060E1680643204654
:100620008847054604E06C2F1AD04FF480700643CB
:100630000DB3A5F14100192802D8203546F4006613
:100640004A462946204626604E46FFF7A9FD80B15E
:1006500001280BD0F61D26F0070000F1080956E727
:100660004020E4E78020D8E70020D6E706F104091F
:100670004DE7284652E7206ABDE8F09F38DF0000CA
:1006800010B5431C02E010F8011B71B18107FAD1CB
:100690004FF0013202C88C1A8C4314EAC211F9D00F
:1006A000C01A0A0603D0C01E10BDC01A10BD0A042D
:1006B00001D0801E10BD0902FCD0401E10BD40EAD2
:1006C000010370B59B072ED14FF00136042A2AD3BF
:1006D00008C810C99D1B9D43121F15EAC61517D0E7
:1006E000D8B2E1B2401A50EA056110D198B2A1B275
:1006F000401A50EA05410AD123F07F4024F07F419F
:10070000401A50EA052102D1180EA0EB146070BD0A
:10071000A342DBD018BA21BA884201D9012070BDAA
:100720004FF0FF3070BD0AB9002070BD10F8013BDA
:1007300011F8014B63B1A3420AD1521E08D010F840
:10074000013B11F8014B1BB1A34201D1521EEDD167
:10075000181B70BD032A40F2308010F0030C00F02B
:10076000158011F8013BBCF1020F624498BF11F8EB
:1007700001CB00F8013B38BF11F8013BA2F10402A4
:1007800098BF00F801CB38BF00F8013B11F003031C
:1007900000F02580083AC0F0088051F8043B083A80
:1007A00051F804CBA0E80810F5E7121D5CBF51F822
:1007B000043B40F8043BAFF30080D20724BF11F89C
:1007C000013B11F801CB48BF11F8012B24BF00F801
:1007D000013B00F801CB48BF00F8012B704710B572
:1007E000203AC0F00B80B1E81850203AA0E8185029
:1007F000B1E81850A0E81850BFF4F5AF5FEA027CEA
:1008000024BFB1E81850A0E8185044BF18C918C058
:10081000BDE810405FEA827C24BF51F8043B40F8F9
:10082000043B08BF7047D20728BF31F8023B48BFDE
:1008300011F8012B28BF20F8023B48BF00F8012B1C
:1008400070474FF0000200B5134694469646203993
:1008500022BFA0E80C50A0E80C50B1F12001BFF479
:10086000F7AF090728BFA0E80C5048BF0CC05DF8DF
:1008700004EB890028BF40F8042B08BF704748BF2D
:1008800020F8022B11F0804F18BF00F8012B7047A1
:100890004FF0013C50F8042B51F8043B9A4221D10F
:1008A000A2EB0C03934313EACC1317D150F8042B9B
:1008B00051F8043B9A4215D1A2EB0C03934313EA7F
:1008C000CC130BD150F8042B51F8043B9A4209D1B8
:1008D000A2EB0C03934313EACC13DBD04FF00000E0
:1008E000704700BFD01A01BAB1FA81F101F01801C6
:1008F00022FA01F0CB40C1F12001DBB2C0B2C01A34
:100900002CFA01F3D11A914311EAC311E6D17047D1
:10091000704770477047000010B500F071FC001D73
:1009200010BD00BF85C9000010B500F06DFC006867
:1009300010BD10B5044600F067FC046010BD70B532
:10094000044685690068C10601D5302600E02026EE
:10095000C00707D070BDD4E9012130469047206A16
:10096000401C20626D1EF6D570BD70B504468569C9
:100970000078C00707D170BDD4E90121202090473D
:10098000206A401C20626D1EF6D570BD09684A05BC
:1009900001D540B27047C905FCD500B2704709685F
:1009A0004A0501D5C0B27047C905FCD580B2704771
:1009B00070B50C460546012A05D02878800600D57A
:1009C000EA69002302E0012305E05B1C934202D2A6
:1009D000E05C0028F9D1A869E618C01AA861286A65
:1009E000184428622846FFF7AAFF04E0D5E9012150
:1009F00014F8010B9047B442F8D32846FFF7B5FF2F
:100A000070BD00002DE9F0410646002410687529EC
:100A1000314616A510D0FFF7B9FF002802DA404290
:100A200013A507E031688A0701D512A502E049073E
:100A300004D511A5012401E0FFF7B1FF00210A222E
:100A400006F1240709E0B0FBF2FCB0FBF2F302FB75
:100A50001C00303078541846491C0028F3D1234636
:100A60002A463046BDE8F04100F020BC00000000FE
:100A70002D0000002B00000020000000116802681B
:100A8000006A530501D508700AE0D30501D5088036
:100A900006E0130603D5C217C1E9000200E00860B2
:100AA0000120704770472DE9FF4F0C461E464FF05E
:100AB000FF378BB0D2E90001DDF860800A908A46EA
:100AC000C1F30A5505B93D46002108464FF0000024
:100AD000BAF1000F00F4400005DA00EB80004FF49B
:100AE000400101EA50004FEA9059B9F1010F00DDD1
:100AF000B9460A9850EA4A000ED044F61050A5F2C2
:100B0000FF3545432F14B8F1000F1ED07542291E42
:100B10001EDDC9F100021CE0B8F1010F4FF000002A
:100B200001D0302103E0F24305E02154401CB042E3
:100B3000FBDB30460022002121540B99C1F80880CC
:100B4000C1E900200FB0BDE8F08FBD1B6D1CDEE7D2
:100B50004A4600DA694206A800F00CFE06AB93E8AC
:100B6000070003AB83E8070050460A9901F0FFFE37
:100B70008DE80700A0F500501F3800900398002D65
:100B800009DD42F21F014A46084403A90390684662
:100B900002F089F908E0A0F500504A461F3803A981
:100BA0000390684602F0A7F98DE807000004000CE6
:100BB00003D04FF0FF30410800E01046B8F1000FBD
:100BC00003D00022009215461EE0751E05D400F0E9
:100BD0001FFB303262556D1EF9D5B3460122084322
:100BE00002D000227F1C04E02078302801D10022AE
:100BF0007F1E002A099786D01DE0112D07DA00F02C
:100C000007FB303262556D1C50EA0102F5D10843F2
:100C100002D00098C8B10EE00021681E05E0235CF8
:100C2000625C63542254401E491C8142F7DBAB4690
:100C3000A81B401E0990002004F80B000B98099A8D
:100C4000C0F80880C0E9002B7CE711264FF00008AF
:100C500059E72DE9F04F88460446D21D22F00701DE
:100C600091B0D1E90001CDE90A0105F084F902460D
:100C70000B98C00F01D02D2007E02068810701D517
:100C80002B2002E0202101EAC000032A099001D0B4
:100C9000072A05DB03464146204600F0DFFC0BE156
:100CA0002078800601D5E06900E00620B8F1650FE4
:100CB000814606D0B8F1660F18D0B8F1670F70D131
:100CC00031E00020B9F1110F009001DB112301E0A8
:100CD00009F101030AAA01A90CA8FFF7E4FEDDE966
:100CE0000C70002609F10105834647E001204B46C0
:100CF00000904FF000470AAA01A90CA8FFF7D3FE05
:100D0000DDE90DB00C995D46002610B909F101002E
:100D10000D18B9EB050003D4C0F1FF3609F1010548
:100D2000A5EB09002BE0B9F1010F01DA4FF0010941
:100D30000020B9F1110F0090484601DD112300E0B9
:100D400003460AAA01A90CA8FFF7ADFEDDE90C7065
:100D50004D4600268346207800070AD4AB4500DACA
:100D60005D4601A8012D04DD411911F8011C30294F
:100D700007D04F4502DA17F1040F04DA012082464A
:100D80000FE06D1EEEE7002F02DCED1B3E4403E09A
:100D9000781CA84200DD7D1CB81B00F1010A4FF051
:100DA00000472078000703D4AA4501DB4FF0FF3A43
:100DB0000021B7F1004F0DF143088DF8431024D006
:100DC00002202B23002F01DA7F422D230A21021E4D
:100DD000A0F1010000DC5FB197FBF1FC97FBF1F2A1
:100DE00001FB1C7C17460CF1300C08F801CDEEE736
:100DF000A8F1010003702188090501D5452100E013
:100E00006521A0F1010800F8011C09980FA9A1EBC8
:100E10000807FF1D00B10120411901EBEA70A1692B
:100E20003844081A401EA0612078C00602D420462B
:100E3000FFF785FD099828B1D4E901219047206A80
:100E4000401C20622078C00622D52046FFF777FD9F
:100E50001EE0002E04DBB34502DD01A8805D00E04A
:100E60003020D4E901219047206A401C2062761C82
:100E7000AAF101005FEA000A0AD100F0C1F9C068D6
:100E80000168405CD4E901219047206A401C20623F
:100E9000281EA5F10105DCDC07E0D4E9012118F8E2
:100EA000010B9047206A401C2062381EA7F1010701
:100EB000F3DC2046FFF759FD032011B043E60000A4
:100EC00001694A1C02610878704700B58FB0CDE90E
:100ED00001310021059105497944CDE903101146FE
:100EE0006846FFF709FB0FB000BD0000E5FFFFFFFC
:100EF0000A6802F8010B0A6070470000074B70B5E2
:100F00000D467B44FFF7E1FF0446284600F0A0FCB5
:100F100010B14FF0FF3070BD204670BD5F6B000018
:100F20002DE9FF5F15468A460446DFF8AC80F84499
:100F30000027D8E900103E46CDE9001010E03AF84D
:100F400016106A4602A800F023FD411C07D0217844
:100F5000890603D5E269391891420DD80744761CF9
:100F60002078800602D5E069B84205DDAE42E6DBB6
:100F70003AF816000028E2D1A069C01BA061204603
:100F8000FFF7DDFCD8E90010CDE90010002017E0E4
:100F90003AF818106A4602A800F0FAFCB0F1FF3FD8
:100FA00081460BD000250DF1080B05E0D4E90121A5
:100FB0001BF8050090476D1C4D45F7D308F1010063
:100FC000B0428046E4DB206A384420622046FFF7C6
:100FD000CCFCBDE8FF9F000026D500002DE9F041C4
:100FE0008046D21D22F007020025D2E90002F52931
:100FF00015A614D0011E72F1000106DA0023D0EB11
:10100000030063EB020211A608E0D8F800108B077A
:1010100001D50FA602E0490701D50EA6012511460C
:10102000002408F1240704E000F0F2F830323A55C9
:10103000641C50EA0102F7D12B4632462146404655
:10104000BDE8F04100F032B9000000002D000000C2
:101050002B0000002000000030B4002100F1240427
:1010600008E002F00705D208303542EA4372DB0897
:101070006554491C52EA0305F3D10468002310A209
:10108000250707D5A40600D421B1C46901230DA208
:10109000641EC46130BC00F009B910B50446214695
:1010A0001068FFF77CFC02462046BDE81040002394
:1010B000D2E7D21D22F00701D1E90023CCE70000DE
:1010C0000000000030000000F0B40D460188090562
:1010D00002D5214C7C4402E01F4C7C440E3400219C
:1010E00000F1240608E002F00F071209E75D42EA6A
:1010F00003721B097754491C52EA0307F3D10278A3
:101100000023120704D5702D06D009B10223113433
:101110002246F0BC00F0CAB801231034F8E770B5DD
:1011200004460D4621461068FFF739FC0246294661
:101130002046BDE870400023C6E7D21D22F0070319
:10114000D3E90023C0E70368126843F0200303607B
:101150000823C3610023B7E788D300000FB400233E
:1011600000B589B00CA900910B99CB60214B7B4451
:101170000693214B7B44079304236FF00042CDE993
:1011800001321E4A7A446B460892024600200DF056
:1011900028F809B05DF814FB70B506464FF0FF3033
:1011A00015460C46324686B00091CDE901016946EC
:1011B0000020049004A8FFF7D1FF024604982118EC
:1011C00025B108B1084600E02046286004980028B0
:1011D0000DD0002A02DD0098884208D03246081B54
:1011E00069460094CDE9010404A8FFF7B7FF06B0F3
:1011F00070BD0000C3050000DB0500001301000006
:1012000000487047DC13002000487047BC130020E2
:1012100030B5B0F10A024FEA900E71F100034EEAC8
:10122000817EB0EB0E0061EB91014FEA101E4EEA99
:10123000017E10EB0E0041EB11114FEA102E4EEA29
:10124000016E10EB0E0041EB11214FEA104E4EEAF9
:10125000014E10EB0E0041EB1141401841F100012D
:101260004FEAD00040EA41704FEAD10110EB80050F
:101270004FEA810444EA907444EB01046D1944EB95
:101280000404521BA3414FF0000348BF0A3200D5AB
:1012900030BD401C41F1000130BD10B50446FFF7E0
:1012A0003BFB0068005D00F0010010BD2DE9F04738
:1012B0000D4699469246044600F1240801688806C6
:1012C00004D5E06921F01001216000E00120A8426E
:1012D00001DD471B00E00027A1697A1902EB090034
:1012E000081AA0612078C00602D42046FFF727FB29
:1012F000002608E0D4E901211AF806009047206A88
:10130000401C761C20624E45F4DB2078C0060AD5CE
:101310002046FFF714FB06E0D4E901213020904776
:10132000206A401C2062381EA7F10107F4DC07E0A8
:10133000D4E9012118F805009047206A401C20627A
:10134000281EA5F10105F3DC2046FFF70EFB2078EF
:10135000000602D50220BDE8F0870120FBE700006F
:101360002DE9F04F04460D46D21D22F0070089B04A
:10137000D0E900974846394604F0FDFD0246F80FD3
:1013800001D02D2307E02068810701D52B2302E03F
:10139000202101EAC0038DF820300BB1012000E0CC
:1013A0000020032A824601D0072A04DB2946204672
:1013B00000F054F93FE12078800601D40D2500E0CB
:1013C000E569C7F30A560D2D49DA00214FEA175B8C
:1013D00008464FF00000002F00F4400007DA00EB51
:1013E00080004FF4400100EBD07001EA60008115ED
:1013F000012901DD4FF0FF3100224FEA850CBCF1DD
:10140000180F06D31346ACF118004FF08052C240BB
:1014100003E04FF4801323FA0CF30CF10C0CBCF135
:10142000200F04D3ACF1200C09FA0CF001E007FA0C
:101430000CF000294FF0004801DD18B90FE00ED183
:1014400040450CD319EB02095F4121B9404502D157
:101450009F4329EA0209BBEB175F00D0761C208866
:10146000000502D57B48784402E07A487844193870
:1014700008AA302302F80A30037C0AF10101002E89
:101480000AF1020A53546A4602DC4FF0300101E0CF
:101490004FF031014FF001088DF8001002D0A6F294
:1014A000FF3603E059EA470100D06B4E002D02DC05
:1014B0002178090704D54FF002082E218DF801107C
:1014C000C44600210BE0C7F303433F01C35C491C42
:1014D0006D1E02F80830052908F1010801DA002D17
:1014E000F1DC00210CE000EB1973491C1B786D1E28
:1014F000082902F808304FEA091908F1010801DA51
:10150000002DF0DC21688B0602D516E0A8F1010859
:10151000E04505DD02EB080313F8013C302BF5D064
:10152000B8F1000F09DD02EB080313F8013C2E2B84
:1015300003D1090701D4A8F10108002D05DD3E21E2
:1015400002F808106D1E08F10108407C002E02F818
:10155000080008F1010804DA2D20764202F808009C
:1015600002E02B2002F808000A214FF47A7086422C
:1015700008F101080BDB96FBF0F3303302F808307A
:1015800096FBF0F308F1010800FB136601E0642EFE
:101590000CDB642096FBF0F3303302F8083096FB46
:1015A000F0F308F1010800FB136601E00A2E06DBE8
:1015B00096FBF1F0303002F8080008F1010896FBC4
:1015C000F1F001FB1060303002F80800A16908F169
:1015D000010808EB050202EB0A00081AA061207856
:1015E000C00602D42046FFF7AAF9216A08AE01EB33
:1015F0000A00206204E0D4E9012116F8010B9047AB
:10160000BAF1010AF7D22078C00602D52046FFF7CA
:1016100096F96E4609E016F8010B3E280FD0D4E982
:1016200001219047206A401C2062B8F10108F2D2E3
:101630002046FFF79AF909B00320BDE8F08F206A31
:101640002844206203E0D4E90121302090476D1E38
:10165000EBD3F8E731D0000002FCFFFF2DE9F041A9
:101660001F46044603260168072A01F4006004DBD4
:1016700008B116A505E016A503E008B115A500E020
:1016800015A521F010002060A069C01EA0610FB157
:10169000401EA0612046FFF752F94FB1D4E9012165
:1016A00038469047206A401C2062C01C206206E039
:1016B000206AFAE7D4E9012115F8010B9047761E5C
:1016C000F8D22046FFF751F9BDE8F0814E414E00B7
:1016D0006E616E00494E4600696E660010B5436942
:1016E00013B1AFF3008001E0FFF762F9012010BDF4
:1016F000127800F124010A7000224A700122EDE7FD
:1017000011684FF0FF32E9E710B5436913B1AFF349
:10171000008001E0FFF704FC012010BD128800F1F9
:10172000240182840022C2840122EDE711684FF077
:10173000FF32E9E7426842B1016811F8013B23B189
:10174000521EC0E90012184670470121C160881E70
:10175000704742685AB1C368016843B983688B42D5
:1017600005D0491E521CC0E90012002070474FF0FE
:10177000FF3070472DE9F047814616468AB033485E
:1017800078440DC88DE80D0030487844801C03ACC7
:101790000DC884E80D0041F69B300844372190FBCA
:1017A000F1F290FBF1F5A5F1800501FB12041B3C61
:1017B00002D56442012000E00020DFF890A08046BE
:1017C0000027FA44AAF1BE0A0DE0E00709D032462C
:1017D000684607EB47010AEB810101F08CFB8DE8BD
:1017E000070064107F1C002CEFD1184F7F44AC3FE2
:1017F00018E0E80714D007EB04100DF1180A90E880
:101800000E008AE80E00C068F04201D198190890D5
:10181000324606A903A801F06EFB03AB83E807007C
:101820006D10641C002DE4D132466946B8F1000FFA
:1018300003A802D001F037FB01E001F05CFBC9E92D
:101840000001C9F808200AB0BDE8F087A8CD000063
:10185000007B00F08000704710B542485421FEF72D
:10186000F0FF41485421FEF7ECFF40485421FEF7B9
:10187000E8FF3F493B483C4A3F4B08603D490A600E
:101880003A491960531C0365481C1065012008651E
:101890003B48344A39A1784400F024FC20B9384848
:1018A00078440A3800F0C3FC37482F4A35A1784401
:1018B00000F018FC20B9344878440A3800F0B7FC2E
:1018C00032482A4A2FA1784400F00CFC20B92F4856
:1018D00078440A3800F0ABFC40232248DC000021A9
:1018E000224600F0DCFB20B125487844543800F053
:1018F0009EFC1D4822464023002100F0D0FB20B171
:1019000021487844543800F092FC184822461023AD
:10191000002100F0C4FB002806D01C487844BDE834
:101920001040563800F083BC10BD104870B5006DF3
:1019300020F001040B4800F04BFC0B4800F048FC81
:101940000A4800F045FC09E0206D20F00105204622
:1019500000F03EFC204606F092F82C46002CF3D115
:1019600070BD0000C0120020141300206813002076
:10197000A0060020A4060020A80600207200000097
:1019800006CA000077000000F4C90000E3C90000A7
:1019900070B516460C460546FEF7BEFF036893F881
:1019A0000101012806D0FF2C0FD8185D68B1012075
:1019B0002C7070BDD3F807013246214603F207139D
:1019C00003442846BDE8704018474FF0FF3070BD13
:1019D00000487047BC1300207546FFF7F9FFAE467C
:1019E00005006946534620F00700854618B020B52B
:1019F000FEF7DAFCBDE820404FF000064FF000078C
:101A00004FF000084FF0000B21F00701AC46ACE8A6
:101A1000C009ACE8C009ACE8C009ACE8C0098D4613
:101A2000704700002DE9FF4F064689B00878FF286F
:101A300006D0491C2D2805D000244FF0000908E0ED
:101A400000200CE00124F8E709EB8903491C00EBB6
:101A500043090878FF28F7D114B1C9F10000814685
:101A6000107800252C46AA4629462D2801D02B287F
:101A700004D1521C2D2813D0002082468B461078AA
:101A8000FF280FD04FF0000C0A21521CA5FB017853
:101A900004FB018105FB0C11C5194BEB0104EEE7BA
:101AA0000120EAE7002108464FF00000BAF1000FDC
:101AB00002D000EB80004008C0F38158B8F1010F5C
:101AC00001DD4FF0FF380C9809EB000755EA0400E0
:101AD00009D04FF0020917F5FA7F0BDA4FEACA7006
:101AE000C6E900B012E04FEACA70C6E900B00DB016
:101AF000BDE8F08FB7F5FA7F0DDDF0487844D0E906
:101B00000010C6E9001040EACA707060FFF77CFB65
:101B1000C0F80090EBE7391E02DAC8F1000200E0DD
:101B2000424600DA794206A8FFF724FE06AB93E8A6
:101B3000070003AB83E8070044F23E005BEA0401C0
:101B40000090584604D144F21E012C465D46009197
:101B5000210C0904014306D10099240444EA1544E8
:101B60002D041039009104F07F41014306D1009902
:101B7000240244EA15642D020839009104F07041F2
:101B8000014306D10099240144EA15742D01091F6F
:101B9000009104F04041014306D10099A40044EAB9
:101BA0009574AD00891E009104F00041084304D1F2
:101BB00000986D196441401E009042466846002F0F
:101BC000CDE9014503A902DD01F0A9F901E001F029
:101BD0007EF9BAF1000F04460D4601D084F00044AE
:101BE00040F2FF7724F00040284303D0C4F30A50AA
:101BF000B84212D1FFF708FBC0F80090C4F30A50B6
:101C0000B8420AD1AE487844D0E90010C6E90010C5
:101C100004F000410843706069E7C6E9005466E7D4
:101C20002DE9FF4F1F464FF0000A4FF0FF384546A1
:101C300091B0D7E90146CDF83CA0FFF7E1FAC068C2
:101C40000168405C1090B96912986D1C8847396A28
:101C5000814688470028F6D1B9F1FF3F0AD0002E0F
:101C600024F4D06411DDB9F12B0F08D0B9F12D0F98
:101C70000BD102E0404615B03AE744F48064B969FC
:101C800012986D1C8847761E8146600504A901D50F
:101C90002D2000E02B20002E01F1010B0DF130086A
:101CA0008DF810003FDDB9F1690F08D0B9F1490F87
:101CB00005D0B9F16E0F02D0B9F14E0F1CD13B46E1
:101CC00001A8009580E85002DDE912126FF00200D1
:101CD0000CF08BFAC11CCED10EE0B96912986D1CC4
:101CE000884781461398761E44F4007405600F9867
:101CF000401C002E0F9016DDB9F1300FEDD0B9F178
:101D0000780F02D0B9F1580F0DD10F9801280AD1E0
:101D10003B46CDE90054DDE91212001F02960CF09B
:101D200062FAC11CA7D1109989453ED144F08004C4
:101D300006E01399681CAAF1010A44F400740860D3
:101D4000B9696D1C1298761E884730288146F0D0FC
:101D50002BE01099894505D1200603D4761E44F066
:101D6000800418E0484604F05DFE08B3761E0DF1CD
:101D700023018B4544F4007408D2A9F130000BF81C
:101D8000010B200607D5AAF1010003E0200602D4CA
:101D90000AF101008246A00502D51399681C08606B
:101DA000B96912986D1C88478146002ED1DC53E03A
:101DB000002E51DDB9F1650F02D0B9F1450F4BD1BD
:101DC000A00549D5B9696D1C1298761E24F440749B
:101DD0008847002E81460CDD2B2804D0B9F12D0F49
:101DE00007D144F48074B96912986D1C8847761E37
:101DF0008146E00501D52D2100E02B2108F8011BCB
:101E0000CDF8008021E0761E0DF13901884544F4BB
:101E100000740CD2A9F1300010F0FF0088F8000027
:101E200002D10099884509D908F1010806E0E005CA
:101E300001D5244801E042F20F708246B969129838
:101E40006D1C8847814613980560002E04DD4846C6
:101E500004F0E8FD0028D6D1F96912988847FF20E0
:101E600053468BF8000088F8000000200A900B9081
:101E700004AA0CA90AA8FFF7D5FDA00502D46FF0AB
:101E80000100F8E614F0240F0AD0E00714D13868F6
:101E9000DDE90A12031D3B600068C0E900120BE097
:101EA0000AA9684604F09AF8E00705D13868009A54
:101EB000011D3960006802602846DCE6ECCF0000B6
:101EC000E2CE0000F1D8FFFF2DE9F04705460C46B1
:101ED000C86820F4201040F48000C860800602D555
:101EE000084600F07EFAE06841F282014FF0FF39C7
:101EF0000140022903D0204600F01CFAB5E000F4AE
:101F00002041B1F5004F0FD1C00306D56168E06AEA
:101F1000884200D80846606006E02069E0626060A0
:101F2000606904F0CEFEA061A0680022EEB2002835
:101F30000DDAE1688B050AD4C043A06041F490300B
:101F40002260E0606068411C61600670A5E0E068A6
:101F50009046226040F40050E060206968BB6069F0
:101F600004F0B1FE012704F12405A0B1A08910F40A
:101F7000407F08D0E06906F06CF9206118B1E06894
:101F800040F4006016E0E7612561E06820F44070ED
:101F900040F480600EE0E06906F05BF90028206103
:101FA000F1D0E06840F4006010F4407FE06002D1BE
:101FB00040F48070E06020696060E06825696FF03F
:101FC000010AC1051FD56168E06A884200D8084649
:101FD000411B04D02246284600F0B6F9F0BBE06869
:101FE000010203D5E562C4E9015854E0691CE162CD
:101FF0006160E16940F48030491EC4E90210304656
:102000002E70BDE8F087010202D500F480320AE0AC
:102010006068411C61600670E0680A2E40F4803000
:10202000E06006D00022E16A6068814203D90B4675
:1020300002E00122F7E70346A7895B1B7F0503D473
:10204000E7699F4200DDE2B1814200D80146E562C6
:102050000F1AC4E90158002B09DD00E005E0224613
:102060001946284600F070F908B14846C9E747B15B
:10207000A069E5626560C01BA061E06840F01000E7
:10208000E060E068000208D56168A069E562491B6C
:1020900008446560A0615046B3E73046B1E770B5CB
:1020A000C468A50713D0650211D4B2F5807F09D0AA
:1020B000B2F5007F06D0B2F5806F08D1012300F1A0
:1020C000240106E05D1E6FF07F46B54201D301207A
:1020D00070BD0161C361416024F470611143C1604E
:1020E000002070BD2DE9F0410C460746164610460B
:1020F00000F06EF82078611C61280AD0722802D0A6
:1021000077283CD102E00125002405E002250424C3
:1021100002E0082448F2020511F8010B2B2806D032
:10212000622809D011F8010C74280AD00BE045F0A0
:10213000030544F00204EFE745F0040544F0010410
:10214000EAE744F010043846214604F0C3FD411C80
:1021500015D00021316171604FF40071F560F161BB
:102160007061200704D530460222002100F066F895
:10217000306D40F0010030653046BDE8F081002050
:10218000FBE72DE9F0410D460646104C206DC107D6
:1021900004D0410804D020F00104F7E722460EE005
:1021A000542006F056F807000ED0206D47F00101CC
:1021B0000843542120653846FEF743FB3A4629463A
:1021C0003046BDE8F0418DE70020D6E7C012002080
:1021D0002DE9F04704464FF000094FF0FF37C5687E
:1021E000D4E90486A80707D0204600F0D7F8304687
:1021F00004F062FD002802DA3846BDE8F0872805C1
:1022000002D5404605F03BFC4C212046FEF719FB69
:10221000206D20F0010020654846EEE710B5044629
:10222000AFF300802046BDE81040FEF722B810B59D
:1022300000F0FEF8BDE8104000F0F4B82DE9F041E0
:10224000044616460D464769007B80072ED0384667
:1022500004F039FD50BB3EB3012E02D0022E25D131
:1022600004E0204600F028FB05441DE0384604F059
:1022700028FDE168002841F01001E16005DA204600
:1022800000F058F80120BDE8F081C9030BD5626861
:10229000E16A914200D81146A26911442269891A63
:1022A000814200DD08460544002D01DA0220EAE7FC
:1022B000E16A6068E268814206D29103E06203D578
:1022C00022F4003141F01002A6690027AE4213DC6F
:1022D000E16A814201D90B4600E0034603EB060C9C
:1022E0002369ACEB030CAC4506DD814201D98C4679
:1022F00000E084469C4505D1A760276042F020009D
:10230000A5620DE0AD1BE669AE1B8142A66000D957
:102310000846C01A281A20605819606022F0200070
:1023200003490840E060002084F84870ABE70000F3
:10233000BFCFD7FFC16821F4001141F08001C16017
:1023400000218160016070472DE9F0478146144605
:102350000E464FF0FF383248D5685769054209D01C
:102360003846A16904F0D2FC002811DB2C48C04398
:102370000540E5602B4632464946384604F0C8FC25
:10238000A16920F00042B21A11440028A16103D0D3
:102390002046FFF7CFFF4046BDE8F08770B5044602
:1023A0000569C06A6168884200D80846E16821F47E
:1023B0002011E160C90312D5A84208D02246411B72
:1023C0002846FFF7C1FF10B14FF0FF3070BD00206D
:1023D000E562C4E90150E06820F48030E06000204C
:1023E00070BD10B50446C06820F02000E060A16A0E
:1023F000A06988420DD02046FFF7D0FFE06820F4A6
:10240000405040F01000E060A06AA0612069E062E6
:10241000606044F24001E0688843E06010BD000065
:1024200010000200002801D004F048BC70470000F2
:1024300010B5014602A000F060FA012010BD0000B6
:1024400053494752545245443A2052656469726573
:1024500063743A2063616E2774206F70656E3A2052
:10246000000000002DE9FF4F1F464FF03C0987B0E8
:102470004FF00042DDE9141001F10108DDF858A029
:1024800002EA40500390002005908346054604462A
:102490000490B969461E08988847AAF1010A02907B
:1024A000BAF1000F3BDD02982E2815D0102100F064
:1024B00050FA00282EDB4FF0010B0599014317D08D
:1024C000B9F1000F0BDB4A46C11700F02FFA0543A4
:1024D0000C43A9F1040905E0012004900BE008B1C8
:1024E00045F0010501200590049820B9361D02E051
:1024F000049800B1361FB969089808F101088847A7
:10250000BBF1000FAAF1010A0290C9D00999C1F8E4
:102510000080C5E70298702808D0502806D0F969D5
:1025200008988847BBF1000F14D04FE000200290BC
:102530000120BBF1000F049009D0B969089808F197
:1025400001088847AAF10109B9F1000F07DCF96910
:10255000089888476FF001000BB0BDE8F08F2B287A
:1025600004D02D280CD14FF0FF300490B9690898A1
:1025700008F101088847A9F10109B9F1000FE6DD6A
:10258000411CE4D00A2100F0E4F90028DFDB0299C5
:1025900008F1010801EB810100EB41000290B969EB
:1025A000089888470A2100F0D4F9099AA9F101098D
:1025B000B9F1000FC2F8008001DD0028E7DAF969FF
:1025C000089888470499029800FB016655EA0400C0
:1025D00004D004F04041090002D006E0039898E0DE
:1025E000A40044EA9574AD00B61E04F00041080052
:1025F00002D16D196441761E159810F0240F03D096
:102600004FF00B095C4803E04FF028096FF07D00A4
:102610008246564507DAAAEB06018944B9F1410F13
:1026200001DD4FF0410901200021A9F1010200F074
:102630007DF9024628400B462140084301D0012184
:1026400000E00021501E029143F1FF31284021405B
:10265000084301D0012000E000200299834651EA9E
:102660000B014FD0002108464FF00000039900F401
:10267000400039B100EB80004FF4400100EBD07016
:1026800001EA60008015012802DD4FF0FF3000E014
:1026900013D0401C36D0029860B3BBF1000F0CD1B0
:1026A0004A460120002100F041F92840214008431A
:1026B00001D0012000E00020E0B101204A460021C5
:1026C00000F034F9034640190A4661412D1A8C4145
:1026D00011D3B9F1400F09DD159810F0240F02D085
:1026E000AAF1340603E0AAF1170600E0761C0025E3
:1026F0004FF0004406E05B1E42F1FF3220EA030582
:1027000021EA0204CAF10100B04206DA1B4903982B
:1027100008430190002000900EE0039AC4F3D321F7
:10272000E80A0A43164940EA44500A433146CDE9D3
:102730000002684603F0AAFC159810F0240F0BD095
:102740001598C00715D13868DDE90012031D3B60FC
:102750000068C0E900120CE002A8694603F03EFCE4
:102760001598C00705D13868029A011D39600068C4
:1027700002604046F0E6000002FCFFFF0000F07F30
:102780000000F03F2DE9FF4F92461D4685B04FF007
:102790000041DDE9124BDDE914727F1E01EA4B5066
:1027A000414940F0FF4940EA0108002122F02000A1
:1027B0004928049102D04E2828D04CE03BA00126A5
:1027C00007C88DE80700A9690698641C88477F1E22
:1027D000014606D41DF8060018B121F020018142FF
:1027E0000BD0E96906988847032E34D0082E32D0E2
:1027F0006FF0010009B0BDE8F08F761C032E01D008
:10280000082EE0D1601CCAF80000DCE7A969069830
:10281000641C88477F1E2AD420F02000412826D13E
:10282000A9690698641C88477F1E20D420F02000E8
:102830004E281CD1A9690698641C88477F1E48F45D
:10284000002849F48009CAF8004001D4282806D09D
:10285000E969069888475FEACB7012D022E0A9693F
:102860000698641C88477F1E01D4002803DAE969B2
:1028700006988847BCE72928F1D1641CCAF80040B3
:10288000E9E71BF0240F07D028680499031D2B608B
:102890000068C0E9001805E02868021D2A60006889
:1028A000C0F800902046A5E70000F07F494E464959
:1028B0004E4954590000000010B50146C268900707
:1028C00003D0900607D5886A0AE0FEF79DFC012137
:1028D0000160881E10BD8B69486818440B69C01AD6
:1028E00091F848301BB191F84910401A10BD1103FE
:1028F000FCD50028FADD401E10BD70B505460C461B
:102900000A2000E06D1C04F0B1FA35B128780028E7
:10291000F8D102E0641C04F0A9FA14B12078002870
:10292000F8D1BDE870400A2004F0A0BAB2F120034B
:102930000AD5C2F1200301FA02F120FA03F300FAEA
:1029400002F041EA0301704700FA03F14FF0000082
:1029500070473A2800D2303820F02002412A01D3B3
:10296000A2F13700884201D34FF0FF3070475FEA91
:10297000400C08BF91F0000F4FEA8C234FEAC122B0
:1029800043EA51514FEA1C5018BF00F5F0404FEA9E
:10299000300018BF41F000415FEA6C5C00F0298014
:1029A000BCF1FF3F08BF40F080407047130C06BFEA
:1029B00012044FF0100C4FF0000C130E04BF120263
:1029C0000CF1080C130F04BF12010CF1040C930F4F
:1029D00004BF92000CF1020CD30F04BF52000CF1A3
:1029E000010C11464FF00002A0F11F00A0EB0C00FB
:1029F000704711F0004F08BF704731F000413FF4BD
:102A0000D5AF0B0C06BF09044FF0100C4FF0000CB3
:102A10000B0E04BF09020CF1080C0B0F04BF0901D7
:102A20000CF1040C8B0F04BF89000CF1020CCB0FCE
:102A300004BF49000CF1010CCCF12003A0EB0C0009
:102A400022FA03F302FA0CF241EA030100F1010059
:102A5000704720F07F4C80EA030023F07F47ACEB07
:102A6000070303F57C5300F0004003F1FF032DE959
:102A700080494FEA154B09B44FEA144325EA0B4E3F
:102A800024EA03480FF2042606EB132749083E7890
:102A90005FEA320203FB0667C7F5000707FB06F68D
:102AA0004FEA54374FEAD64606F1020607FB066C9A
:102AB000CCF1005C4FEA1C472CEA074C07FB06F4FC
:102AC0000CFB06F504EB15464FEA961634BF0020C2
:102AD0004FF000404FEAD13706FB07FC4FEA1C4C91
:102AE0000CFB0BF7D21B03FB0CF761EB07010CFB94
:102AF0000EF7B0EB074072EB17420CFB08F734BF40
:102B0000A2EB0742B2EB074261EB17414FEA0C44DC
:102B10004FEA910706FB07FC4FEA1C4C0CFB0BF736
:102B2000B0EBC74072EB573203FB0CF734BFA2EB9C
:102B3000C742B2EBC74261EB57310CFB0EF7B0EB6B
:102B4000C70072EB57720CFB08F734BFA2EBC70249
:102B5000B2EBC70261EB5771039F4FEA816141EA13
:102B6000921104EBCC044FEAD1374FEA826206FBA4
:102B700007FC42EA90124FEA80604FEA1C4C0CFBC3
:102B80000BF7D21B03FB0CF761EB07010CFB0EF7F5
:102B9000B0EB074072EB17420CFB08F734BFA2EB17
:102BA0000742B2EB074261EB17414FEA8C554FEAFF
:102BB000910704EB9C2406FB07FC4FEA1C4C0CFB22
:102BC0000BF7B0EBC74072EB573203FB0CF734BF87
:102BD000A2EBC742B2EBC74261EB57310CFB0EF7D9
:102BE000B0EBC70072EB57720CFB08F734BFA2EBD7
:102BF000C702B2EBC70261EB577115EB4C254FEAE8
:102C0000816141EA92114FEA82624FEAD13742EA8A
:102C1000901206FB07FC44F100044FEA80604FEA83
:102C20001C4C0CFB0BF7D21B03FB0CF761EB0701F1
:102C30000CFB0EF7B0EB074072EB17420CFB08F7EA
:102C400034BFA2EB0742B2EB074261EB174115EB31
:102C50001C154FEA813141EA92414FEA823242EA41
:102C600090424FEA80304FEA0C7644F1000448EA83
:102C700003434EEA0B484FF0000EB2EB080C71EB29
:102C8000030724BF624639464EEB0E0E4FF0000B91
:102C90000018524149414BEB0B0BB2EB080C71EBA6
:102CA00003077BF1000B24BF624639464EEB0E0E44
:102CB0004FF0000B0018524149414BEB0B0BB2EBAC
:102CC000080C71EB03077BF1000B24BF6246394609
:102CD0004EEB0E0E51EA020718BF46F0010616EB46
:102CE0000E7655F1000254F1000103D5BDE88901CB
:102CF000BDE80088BDE88901BDE80048B619524129
:102D000041EB0101A3F10103704780807F7E7D7C50
:102D10007B7A7978777676757473727171706F6E6D
:102D20006E6D6C6C6B6A6A69686867666665646418
:102D3000636362616160605F5F5E5E5D5D5C5C5BA2
:102D40005B5A5A5959585857575656555555545411
:102D5000535352525251515050504F4F4F4E4E4D6F
:102D60004D4D4C4C4C4B4B4B4A4A4A4949494848BB
:102D700048474747474646464545454444444443FB
:102D800043434342424242414141000046EA064633
:102D9000A3F570534FEA164646EA42564FEAD2224E
:102DA00042EA415210B54FEAD121A3F1010300F0EC
:102DB00017F820F0004000F1010C00F0004701EB93
:102DC00000501146BCF5006F40EA070000D210BD6C
:102DD00002484FF0000140EA070010BD0000F07FFC
:102DE000002B26D4770021D01CB54FEA370703B457
:102DF0004FF010004FF010014FF000000FBCBDE885
:102E000010400BF1010BBBF1010F08BF5FEA170780
:102E100022BF12F1010211F101014FF0004143F113
:102E2000000300F0004043EA00007047F9D3570860
:102E3000DAE746EA064613F1400F4FEA16461FDD71
:102E400013F1200FDFBF16430A46002120335B42F7
:102E5000C8D0C3F1200746EA064602FA07F74FEA50
:102E6000164646EA0706C3F1200722FA03F201FAE2
:102E700007F721FA03F14FF0000342EA0702B1E736
:102E800046EA020646EA06464FEA164646EA0106C2
:102E9000BCBF46EA0646360C4FF000034FF0000276
:102EA0004FF000019EE72DE9C048934630B491E809
:102EB000380007C831EA400C48BF34EA430C03D558
:102EC000FFF7C7FDFFF78CFFF0BCBDE800882DE9D8
:102ED000C048934630B491E8380007C831EA400C46
:102EE00048BF34EA430C03D5FFF7B3FDFFF74EFFAD
:102EF000F0BCBDE800882DE9C048934630B491E8A5
:102F0000380007C810F0804F08BF13F0804F03D17E
:102F100000F019F8FFF764FFF0BCBDE800882DE968
:102F2000C048934630B491E8380007C810F0804F8D
:102F300008BF13F0804F03D100F005F8FFF726FF1C
:102F4000F0BCBDE8008820F07F4780EA030023F052
:102F50007F4C07EB0C03A3F57C5300F00040A3F17A
:102F6000FE0392F0000F00F0B38095F0000F00F028
:102F700077802DE901494FEA11404FEA144621EAD2
:102F8000004800FB06FC24EA064708FB06F607FBA0
:102F900008F800FB07F718EB06484CEB164C4FEA15
:102FA000124B18EB07484FEA15464CEB174022EA44
:102FB0000B4E0BFB06FC25EA06470EFB06F607FB4D
:102FC0000EFE0BFB07F71EEB064E4CEB164C4FF0BC
:102FD00000061EEB074E4CEB174B18EB0B0840F1AD
:102FE000000018EB0E0B58EB000840F100008F1AA0
:102FF0004FF000013CBFC943661B14BFB5EB040C86
:1030000000213CBFC943F61B4FEA17444EEA8E0E1F
:1030100027EA04454FEA1C4704FB07622CEA074CE9
:1030200005FB07F70CFB05F604FB0CFC16EB07464B
:1030300042EB174216EB0C4642EB1C421BEB06061A
:1030400058EB0202414146EA9E0601D5BDE80189DE
:10305000B619524141EB0101A3F10103BDE8018919
:103060004FEA14454FEA114724EA054621EA074C86
:1030700005FB07F406FB07F70CFB06F105FB0CFC50
:1030800011EB074144EB17444FEA124711EB0C4197
:1030900044EB1C4422EA074C05FB07F206FB07F74A
:1030A0000CFB06F605FB0CFC16EB074642EB174241
:1030B00016EB0C4642EB1C456A1854F1000148BF60
:1030C0007047B619524141EB0101A3F1010370476A
:1030D00095F0000F37D04FEA11424FEA144721EA2A
:1030E000024624EA074C02FB07F106FB07F70CFB3C
:1030F00006F402FB0CFC14EB074441EB17414FEACA
:10310000154714EB0C4441EB1C4125EA074C02FB2C
:1031100007F506FB07F70CFB06F602FB0CFC16EBAB
:10312000074645EB174516EB0C4645EB1C421219BA
:1031300051F1000148BF7047B619524141EB0101FE
:10314000A3F1010370474FEA14454FEA114724EAFF
:10315000054621EA074C05FB07F106FB07F70CFBC8
:1031600006F24FF0000605FB0CFC12EB074241EBA8
:10317000174112EB0C4251EB1C4148BF70479218AB
:1031800041EB0101A3F10103704710B508F0E0FE27
:10319000002010BD70B5044600688168C943C907A6
:1031A00016D1816821F00101816001F0FFF8054628
:1031B00009E001F0FBF8401B022804D92068806870
:1031C000C043C00706D020688068C043C007F0D065
:1031D000002070BDA06A40F01000A062E06A40F0DC
:1031E0000100E062012070BDF8B50026044600969B
:1031F00000688168C943C9072CD0816841F001018A
:103200008160154815490068B0FBF1F000E0401EF0
:1032100000900028FBD101F0C9F8054615E001F047
:10322000C5F8401B022810D920688068C043C00739
:103230000BD0A06A40F01000A062E06A40F00100EC
:10324000E06284F824600120F8BD20688068C043F3
:10325000C007E4D10020F8BD6805002040420F00FF
:1032600010B507F099F80121034803F091FABDE881
:10327000104007F0AFB80000D000002070B5314D0D
:103280002E1D6868846907F087F8304600F015FC49
:10329000C4F3021007283ED2DFE800F03D040A1014
:1032A00032323800D5F8D000401CC5F8D00032E0EA
:1032B000D5F8D400401CC5F8D4002CE0D5F8D800CF
:1032C000401CC5F8D80069688A6840F20150024283
:1032D0001C4800F1540001D103210EE08A6840F23D
:1032E00009531A4202D140F2031106E0896840F204
:1032F000115211420FD140F2032106F0ADFB0AE05A
:10330000D5F8DC00401CC5F8DC0004E0D5F8E0008E
:10331000401CC5F8E00004F07000C5F8EC00200E79
:1033200045F8B40FC4F30740686004F00700A860D4
:103330003068416841F004014160BDE8704007F029
:1033400049B800007C00002030B590F840500124BE
:10335000AC40C56B6C60046863604368102B036805
:1033600003D099600068C26030BD9A600068C16097
:1033700030BD10B507F010F8012000F01BFFBDE8CC
:10338000104007F027B810B507F006F84FF480603A
:1033900000F010FF4FF4006000F00CFF4FF480507D
:1033A00000F008FF4FF4005000F004FF4FF480409D
:1033B00000F000FF4FF4004000F0FCFEBDE81040BC
:1033C00007F008B810B506F0E7FF022000F0F2FEA3
:1033D000BDE8104006F0FEBF10B506F0DDFF04208A
:1033E00000F0E8FEBDE8104006F0F4BF10B506F0AE
:1033F000D3FF082000F0DEFEBDE8104006F0EABF73
:1034000010B506F0C9FF102000F0D4FEBDE8104052
:1034100006F0E0BF10B506F0BFFF202000F0CAFEA6
:10342000402000F0C7FE802000F0C4FE4FF4807002
:1034300000F0C0FE4FF4007000F0BCFEBDE810408C
:1034400006F0C8BFF8B50023009390F824201C466E
:10345000012A12D0012280F824204A681F26072A58
:103460000DD205686F6B521E02EB82029640B74385
:103470000E68964037436F6319E00220F8BD056877
:103480000D2A0AD22F6BD21F02EB82029640B7435D
:103490000E68964037432F6309E0EF6A0D3A02EB5E
:1034A00082029640B7430E6896403743EF620A683F
:1034B000072605680A2A0AD3EF680A3A02EB420295
:1034C0009640B7438E6896403743EF6008E02F6917
:1034D00002EB42029640B7438E68964037432F6115
:1034E0000A68102A01D0112A20D1124D0268AA427E
:1034F00017D195682D0219D4956845F4000595609B
:103500000968102912D10C490C4A0968B1FBF2F183
:1035100001EB8101490000E0491E00910029FBD127
:1035200004E0816A41F020018162012380F8244097
:103530001846F8BD002401406805002040420F00F5
:103540000068C06C704700002DE9F0414FF00006A4
:10355000040035467DD0A06A002728B9E76284F8C8
:103560002470204600F07EF82046FFF713FEA16A83
:10357000C90600D420B1A06A40F01000A06268E043
:10358000A16A21F4885141F00201A1626268E169F7
:10359000237B0A4346EA43010A43A1684FF480763D
:1035A000B14208D0012906D0002194F814C0BCF122
:1035B000010F02D00AE03146F7E7F3B1A36A43F006
:1035C0002003A362E36A43F00103E3622368D3F8B4
:1035D00004C02CF4694C4CEA010CC3F804C0216807
:1035E0008B68DFF874C003EA0C0313438B60A16897
:1035F000B1420BD0012909D00CE0DFF860C0A3690B
:103600000CEB43330B4343F40061DFE7218A0D05E4
:10361000A5F580152168CB6A23F470032B43CB6298
:10362000216889680E4B1940914208D1E762A16A6E
:1036300021F0020141F00101A162BDE8F081A06A20
:1036400020F0020040F01000A062E06A40F00100AB
:10365000E0620120F1E70000FDF7E1FF00E0FFFF7D
:10366000FE0E1FFF00B585B000210091019102916F
:10367000039100680E49884218D10E48816941F4CF
:1036800000718161816901F400710491816941F0E7
:10369000040181618069694600F0040004903820CB
:1036A000009003200190044800F090FD05B000BD9B
:1036B0000024014000100240000801402DE9F843B9
:1036C0004FF000080D460446CDF8008000F06EFE75
:1036D000074620688168C90508D5A06A40F0200027
:1036E000A06284F824800120BDE8F8834168C90500
:1036F00003D4C06A10F4700F29D0022000F034FF08
:103700003A490968B1FBF0F620680169384A11426C
:103710004FEA62024FEAA2131ED1C1684FEA621C4F
:1037200011EA0C0F18D10169114224D1C068184266
:1037300021D1142022E0681C09D025B100F036FE0A
:10374000C01BA84203D920680068800724D52068E0
:1037500000688007EFD52CE00169114202D1C168F1
:10376000194206D0026923490A4206D1C0680842BC
:1037700003D1542002E0292000E0FC2046430098B9
:1037800015E0681C10D025B100F010FEC01BA84247
:103790000AD90098B04207D2A06A40F00400A062A3
:1037A00084F8248003209FE70098401C0090B042DA
:1037B000E7D321686FF012000860A06A40F400703F
:1037C000A06220688068C0F3424007280CD1207BAB
:1037D00050B9A06A20F48070A062A06AC00403D42B
:1037E000A06A40F00100A06200207DE7680500208B
:1037F000244992244992240070B5044690F824008C
:1038000001280DD0012084F824002046FFF7ECFCAD
:1038100001004FF0000205D084F82420084670BD56
:10382000022070BDA06A40F20123984340F48070EA
:10383000A0621F4D20681F4BA84218D11E6816F4C5
:10384000702F14D0A66A46F48016A6621E6876050C
:1038500005D5A66A26F4005646F48056A662A66AE6
:10386000F6040AD5E66A26F00606E66206E0A66ACF
:1038700026F48016A6624668E9E7E26284F824200E
:103880006FF00202026020688268C2F34242072A97
:1038900005D1A84208D11A6812F4702F04D08268AA
:1038A00042F480128260B9E7826842F4A002F9E72C
:1038B000002801400424014010B590F8203002682F
:1038C000012B07D0022B05D0416A41F480214162CF
:1038D000012010BDD2F8000240F00100C2F8000241
:1038E000087D00F01F0301209840D2F81C3283436A
:1038F000C2F81C32CB69B3B9D2F80C328343C2F898
:103900000C328C894B6864F31F434C6902EBC4048E
:10391000C4F840320C890B6864F31F434C6902EB16
:10392000C404C4F84432CB69012B16D1D2F80C324E
:103930000343C2F80C320C884B6864F31F434C6994
:1039400002EBC404C4F840320C89CB6864F31F4313
:103950004C6902EBC404C4F844328B69002BD2F8E2
:1039600004320ED00343C2F804320B69002BD2F8A4
:10397000143208D00343C2F81432096A012904D072
:1039800008E08343EFE78343F5E7D2F81C120143D5
:10399000C2F81C12D2F8000220F00100C2F80002A6
:1039A000002010BD0068416948F67F7211434161F3
:1039B00070470246002092F82030012B01D0022BE4
:1039C00004D1106819B1006900F003007047C068A5
:1039D000FAE730B590F82040012C05D0022C03D036
:1039E000416A41F480215DE00468002955D02469D2
:1039F000A40754D04FF4D874056804EB01142D5972
:103A000015F00405956005682D594ED0ED085560F8
:103A100005682C5904F00204D4604FF4DA74056888
:103A200004EB01142D5905F00F05156105682D599A
:103A3000C5F30725956105682C59240C54614FF492
:103A4000DC72046802EB0112A4581C700468A458CC
:103A5000240A5C700468A458240C9C700468A25862
:103A6000120EDA704FF4DE72046802EB0112A458F1
:103A70001C710468A458240A5C710468A458240CBE
:103A80009C710468A258120EDA71006881B1016954
:103A900041F020010161002030BDE468A8E7416ADF
:103AA00041F400114162012030BD6D0D1560AFE79A
:103AB000C16841F02001C160EDE72DE9F05F0546E6
:103AC000006800244669D0F804908768D0F80CB0EC
:103AD000D0F810A0D0F81880F10748D0F90714D01A
:103AE00001218160B80703D5284600F0D8F90CE021
:103AF000780702D54FF4006407E0380702D54FF489
:103B0000805402E0284600F0C9F9F80516D5296866
:103B10004FF480708860B80503D5284600F0C1F9DD
:103B20000CE0780502D544F4005407E0380502D5CE
:103B300044F4804402E0284600F0B2F9F80316D5B8
:103B400029684FF480308860B80303D5284600F018
:103B5000AAF90CE0780302D544F4004407E03803E6
:103B600002D544F4803402E0284600F09BF9300787
:103B700007D55FEACB6004D52968102044F40074AF
:103B8000C86070074FF0080707D55FEA0B7004D5CF
:103B90002868C760284600F051F9B00706D52868A4
:103BA000C068800702D0284600F049F9700607D5A2
:103BB0005FEACA6004D52968102044F48064086173
:103BC000B00607D55FEA0A7004D528680761284661
:103BD00000F036F9F00606D528680069800702D0A3
:103BE000284600F02EF9B00308D55FEAC96005D574
:103BF000296810204860284600F024F9F00307D512
:103C00005FEA097004D528684760284600F04CF93F
:103C1000300446D55FEA497040D5F00504D55FEA27
:103C2000C87001D044F00104B00504D55FEA887083
:103C300001D544F00204700504D55FEA487001D54F
:103C400044F00404300529D518F0700F26D008F090
:103C50007000402815D006DC102809D020280AD092
:103C6000302816D10AE050280ED0602811D10EE07D
:103C700044F008040DE044F010040AE044F020048D
:103C800007E044F0400404E044F0800401E044F420
:103C900080742868816921F070018161296804209D
:103CA0004860002C05D0686A204368622846FFF708
:103CB00079FEBDE8F09F70B5040003D094F82000B1
:103CC00010B104E0012070BD204600F081F82068AA
:103CD000016841F00101016000F068FB054605261E
:103CE00004E000F063FB401B0A2811D820684068FC
:103CF000C007F6D02068016821F00201016000F0E1
:103D000055FB05460BE000F051FB401B0A2806D985
:103D1000606A40F40030606284F82060D2E7206876
:103D200040688007EFD4207E0128206801683DD0DC
:103D300021F080010160607E01282068016838D090
:103D400021F040010160A07E01282068016833D085
:103D500021F020010160E07E0128206801682ED05A
:103D600041F010010160207F01282068016829D0FE
:103D700021F008010160607F01282068016824D0DB
:103D800021F004010160D4E902010843D4E90412DE
:103D9000114308436168491E08432168C861002037
:103DA0006062012084F82000002070BD41F0800195
:103DB000C0E741F04001C5E741F02001CAE721F02A
:103DC0001001CFE741F00801D4E741F00401D9E741
:103DD00010B586B000210091019102910391006815
:103DE0001349884222D11348C16941F00071C16171
:103DF000C16901F000710491816941F004018161A0
:103E000080690D4C00F0040004904FF400600090B5
:103E10006946204600F0DAF9A114009102210191CF
:103E2000032103916946204600F0D0F906B010BD89
:103E300000640040001002400008014070477047D5
:103E400070477047704770B5044690F8200001280D
:103E500004D0606A40F40020606217E0022084F819
:103E600020002068016821F00101016000F09EFA45
:103E700005460DE000F09AFA401B0A2808D9606A4E
:103E800040F400306062052084F82000012070BDFD
:103E900020684068C007EDD1606270BD7047704710
:103EA0007047704770477047704710B590F8211001
:103EB0000022022905D00421816380F820200120FE
:103EC00010BD01680B6823F00E030B6001680B68DE
:103ED00023F001030B6090F84030012404FA03F151
:103EE000C36B596080F8214080F82020104610BD37
:103EF00010B590F821100024022903D00421816319
:103F000001243DE001680A6822F00E020A6001689F
:103F10000A6822F001020A601A4A0168914201D13E
:103F2000012121E0174A1432914201D110211BE0F6
:103F3000144A2832914201D1891515E0114A3C32C8
:103F4000914201D189140FE00E4A5032914202D1C0
:103F50004FF4803108E00B4A6432914202D14FF4B1
:103F6000801101E04FF08071064A083A516001214A
:103F700080F82110002180F82010416B01B18847A2
:103F8000204610BD0800024010B528B301680A6839
:103F900022F001020A60026800211160026851608B
:103FA000026891600268D1600C4B026801241A44D7
:103FB0001423B2FBF3F29200094BC0E90F32944094
:103FC0005C608162C16201634163816380F821109A
:103FD00080F82010002010BD012010BDF8FFFDBFAB
:103FE0000000024030B528B302C8134A14230A4423
:103FF000B2FBF3F29200C263104A8263022242775C
:104000000B6843F6F0729343D0E900242243D0E9D1
:1040100002452C43224304692243446922438469B4
:1040200022431A430A60002141630122427701774B
:10403000084630BD012030BDF8FFFDBF0000024042
:1040400070B5044690F82000002501280CD001200E
:1040500084F8200094F821600020012E06D084F816
:1040600020000225284670BD022070BD022684F87B
:104070002160A0632068066826F0010606602046DD
:10408000FFF762F9E06A00282068016802D041F079
:104090000E0106E021F0040101602068016841F092
:1040A0000A0101602068016841F001010160D9E75F
:1040B0002DE9F0430022DFF8C0904FF00F0C55E0DF
:1040C000012393400B404FD022F003054D44AC68D0
:1040D0009607370F0CFA07F606EA0408274CA042A9
:1040E00001D100240FE0264CA04201D101240AE0B6
:1040F000244CA04201D1022405E0234CA04201D16E
:10410000032400E00424BC40444512D1AC68B4430D
:10411000AC601E4C25689D432560241D25689D4389
:104120002560241D25689D432560241D25689D4329
:104130002560FF2B01D8044601E000F104044FEA9A
:10414000820501D9A5F1200526680CFA05F726EAB3
:1041500007064FF0040707FA05F746EA0706266048
:10416000C46824EA0304C46002F1010231FA02F3D4
:10417000A6D1BDE8F0830000000001400008014026
:10418000000C0140001001400014014000040140F7
:1041900010B502F086FE00EB4001054800EB8100FF
:1041A0004168002903D08068BDE81040084710BD71
:1041B000E8010020044910B50A68024202D00860F4
:1041C000FFF7E6FF10BD0000140401402DE9F84F91
:1041D000DFF8A491002409F1040A0AF1040B234634
:1041E0004FF00F080BF1040EBEE00127A7403A4044
:1041F000BA4272D1DFF884C14D68A5EB0C06654563
:104200002BD00DDC032D34D005DC35B3012D19D0B6
:10421000022D2FD11BE0112D16D0122D2AD119E01D
:10422000B6F5881F19D006DCB6F5803F15D0B6F577
:10423000801F1FD111E0B6F5001F0ED0B6F5041F88
:1042400018D10AE0CB6815E0CB681B1D12E0CB68E3
:1042500008330FE0CB680C330CE08B682BB1012BDB
:104260004FF0080303D0476104E0042302E0076134
:1042700000E00023FF2A01D8064601E000F1040611
:104280004FEA840501D9A5F12005376808FA05FC35
:1042900027EA0C0703FA05F547EA050737604D687A
:1042A000ED0060D5364DAE6946F00106AE61AD69F0
:1042B00024F0030605F001050095324D7719BE681C
:1042C000A5072D0F08FA05FC26EA0C06DFF8B8C092
:1042D000604503D14FF0000C17E044E0DFF8ACC0BC
:1042E000604502D14FF0010C0FE0DFF8A4C060453B
:1042F00002D14FF0020C08E0DFF898C0604502D10F
:104300004FF0030C01E04FF0040C0CFA05FC4CEAF2
:10431000060CC7F808C04D68D9F80060ED034D469B
:1043200001D5164300E096432E604D68DAF8006030
:10433000AD03554601D5164300E096432E604D6807
:10434000DBF80060ED025D4601D5164300E09643C0
:104350002E604D68DEF80060AD02754601D516434B
:1043600000E096432E60641C0A6832FA04F57FF47C
:104370003CAFBDE8F88F00000004014000001110C0
:10438000001002400000014000080140000C014004
:1043900000100140001401408068084000D0012056
:1043A00070470AB1016170470904FBE700B54FF09F
:1043B000E0200069C00301D500F044F8014800681E
:1043C00000BD00007405002001480068704700002F
:1043D000E8F7FF1F0148006870470000ECF7FF1F77
:1043E00070B5040011D021684CF6CC4008602168FB
:1043F00045F255500860D4E9000141602168A06889
:104400008860FFF7D3FF05460CE0012070BDFFF781
:10441000CDFF401B272805D92068C068800701D040
:10442000032070BD2068C0688007F0D121684AF67B
:10443000AA200860002070BD00684AF6AA21016029
:104440000020704703480168034A12681144016064
:104450007047000074050020E0010020074810B5F7
:10446000016841F010010160032000F06BF80020AA
:1044700000F006F800F00AF8002010BD002002400D
:1044800010B505F0EFFD002010BD00000C4808B588
:10449000816941F001018161816901F001010091AF
:1044A000C16941F08051C161C069064900F0805086
:1044B0000090486820F0E06040F00070486008BD5F
:1044C000001002400000014000280DDB00F01F0238
:1044D000012191404009800000F1E020C0F88011E6
:1044E000BFF34F8FBFF36F8F7047002809DB00F0D9
:1044F0001F02012191404009800000F1E020C0F836
:1045000000117047F0B40E4B1B68C3F30223C3F1D4
:104510000704042C00D904241D1D072D01D20023FB
:1045200000E0DB1E012606FA04F56D1E0D409D40DD
:104530009E40761E164045EA0601F0BC01F02FBDF4
:104540000CED00E0064A00F0070110684FF6FF038B
:10455000184040EA012003490843106070470000FA
:104560000CED00E00000FA0510B5014627A086B06A
:104570001DC88DE81D0029A0294C0068049000206A
:10458000012922D0022938D010291CD16168226863
:10459000D20118D5C1F38342C9031DF8020009D521
:1045A000616804AAC1F34041515C1E4AB2FBF1F1BB
:1045B000484301E01C4948436168490203D4400074
:1045C0000321B0FBF1F006B010BD216AC1F3012256
:1045D000012A03D1890701D5D003F4E7022A05D1C6
:1045E000616A890702D549F64040ECE7032AEAD11F
:1045F00021688903E7D50D48E5E700F059F96168BE
:10460000C1F38131491C4900DBE7000002030405C6
:10461000060708090A0B0C0D0E0F1010010200000E
:1046200000100240001BB70000093D00366E01007B
:104630002DE9F84304460078344FC00752D0F8699A
:104640000025C00008D4F86940F08050F861F8698E
:10465000012500F0805000902D480168C90511D453
:104660000168804641F480710160FFF79FFE0646B5
:1046700004E0FFF79BFE801B642822D8D8F80000D6
:10468000C005F6D5386A10F4407020D0A18801F436
:10469000407181421BD0386A1E49012220F44070CB
:1046A0000A6000220A603862C00710D0FFF77EFE61
:1046B000064641F2883807E0FFF778FE811B414546
:1046C00002D90320BDE8F883386A8007F4D5386A38
:1046D000616820F44070084338621DB1F86920F029
:1046E0008050F8612078800705D57868A16820F4AB
:1046F0004040084378602078C00605D57868E168B6
:1047000020F48000084378600020DBE700100240BE
:1047100000700040400442422DE9F0470D4604007D
:1047200067D0DFF81881D8F8000000F00700A84231
:104730000CD2D8F8001021F007012943C8F8001066
:10474000D8F8000000F00700A84252D120683C4E83
:10475000810712D5400703D5706840F4E0607060AF
:104760002078000703D5706840F46050706070686E
:10477000A16820F0F000084370602078C00727D0BF
:104780006068012810D03168022810D089070029FC
:104790002FDA716821F0030101437160FFF706FE13
:1047A000074641F288390CE031688903EFE7890157
:1047B000EDE7FFF7FBFDC11B494502D90320BDE82A
:1047C000F0877068616800F00C00B0EB810FF0D1E9
:1047D000D8F80010404601F00701A9420BD9016842
:1047E00021F0070129430160006800F00700A8429A
:1047F00001D00120E3E72078400705D57068E16823
:1048000020F4E060084370602078000706D57068E7
:10481000216920F4605040EAC100706000F058F84F
:104820007168084AC1F30311515CC8400649086029
:1048300006480068FFF724FE0020C0E70020024081
:1048400000100240FEE3000868050020700500200B
:104850000F2202600C4A536803F00303436053685D
:1048600003F0F0038360536803F4E063C3605268AD
:104870004FF4E06303EAD20202610448006800F0EA
:10488000070008607047000000100240002002404E
:104890000448054900684968044AC1F30221515C93
:1048A000C840704768050020001002400EE4000870
:1048B0000448054900684968044AC1F3C221515CB3
:1048C000C840704768050020001002400EE4000850
:1048D00013A085B00FC88DE80F0015A0154A006819
:1048E0000490516801F00C00042804D0082804D07A
:1048F000114805B070471148FBE7C1F38343C90372
:104900001DF8030009D5516804AAC1F34041515C68
:104910000A4A5043B0FBF1F0EBE709494843E8E7A6
:1049200002030405060708090A0B0C0D0E0F1010F0
:10493000010200000010024000127A00001BB700C4
:1049400000093D002DE9F84F04006FD02078BE4DDE
:10495000C00747D06868C0F38100012807D06868A5
:10496000C0F38100022809D16868C00306D5286811
:10497000800337D560680028E7D033E06068B0F581
:10498000803F0BD010B1B0F5A02F11D0286820F4D3
:1049900080302860286820F4802002E0286840F4F5
:1049A00080302860606888B1FFF700FD064609E0A6
:1049B000286840F480202860F0E7FFF7F7FC801BB0
:1049C000642873D828688003F7D50BE0FFF7EEFC66
:1049D000064604E0FFF7EAFC801B6428F1D828684B
:1049E0008003F7D42078DFF8648280074FF0010A53
:1049F0004FF0000939D5686810F00C0F07D06868CF
:104A0000C0F38100022809D16868C00306D4286871
:104A1000800714D52069012808D110E02069B0B1C1
:104A2000C8F800A0FFF7C2FC064605E007E1FFF763
:104A3000BDFC801B0228C4D828688007F7D52868E9
:104A4000616920F0F80040EAC10028600DE0C8F874
:104A50000090FFF7ABFC064604E0FFF7A7FC801BC5
:104A6000022823D828688007F7D4207800072CD59F
:104A70007748A169D9B1C0F800A0FFF797FC0646B6
:104A800004E0FFF793FC801B02280FD8686A8007B8
:104A9000F7D570484FF4FA510068B0FBF1F0009080
:104AA00000BF0098411E0091FAD20EE07CE0C0F8F1
:104AB0000090FFF77BFC064604E0FFF777FC801BC5
:104AC000022871D8686A8007F7D4207840075BD540
:104AD000E8690027C00008D4E86940F08050E86128
:104AE000E869012700F0805000905B480168C90523
:104AF00011D40168834641F480710160FFF756FCD0
:104B0000064604E0FFF752FC801B64284CD8DBF813
:104B10000000C005F6D5E06801280AD008B10528D4
:104B200013D0286A20F001002862286A20F00400CF
:104B300002E0286A40F001002862E06841F2883B08
:104B400088B1FFF733FC064609E0286A40F004000C
:104B50002862EEE7FFF72AFC811B59455BD8286ADB
:104B60008007F7D50BE0FFF721FC064604E0FFF7CE
:104B70001DFC811B59454ED8286A8007F7D41FB108
:104B8000E86920F08050E861E069A8B36968C1F382
:104B90008101022946D00228484606D0C8F86000A4
:104BA000FFF704FC044639E035E04746C8F86000EA
:104BB000FFF7FCFB064604E0FFF7F8FB801B02282A
:104BC00029D828688001F7D4206AB0F5803F05D144
:104BD0006868A16820F4003008436860D4E90801DF
:104BE0000843696821F4741108436860C7F860A03D
:104BF000FFF7DCFB044605E023E0FFF7D7FB001BD3
:104C0000022808D828688001F7D51AE0FFF7CEFB04
:104C1000001B022802D90320BDE8F88F2868800114
:104C2000F4D40EE00128F7D06868226A00F48031DD
:104C3000914204D1616A00F47010884201D00120D1
:104C4000EAE70020E8E700000010024000004242CE
:104C500080044242680500200070004010B5401EEC
:104C6000B0F1807F01D3012010BD4FF0E0246061DE
:104C70000F21601701F093F90020A0610720206147
:104C8000002010BD7047704770B590F83C20012A95
:104C900026D0012580F83C50022280F83D20026891
:104CA0005368946823F070060B68334353600D4BD0
:104CB00002689A4208D0B2F1804F05D00A4B9A425E
:104CC00002D00A4B9A4204D1496824F08003194368
:104CD000916080F83D50002180F83C10084670BD7E
:104CE000022070BD002C014000040040000800407C
:104CF00010B5044649B104290AD008290BD094F80C
:104D0000450001280AD0012010BD94F84200F8E7C0
:104D100094F84300F5E794F84400F2E7022031B339
:104D2000042927D0082928D084F8450004222068C7
:104D300000F039FE2068416C41F4004141641049A3
:104D40002068884208D0B0F1804F05D00D498842D4
:104D500002D00D49884204D1816801F0070106297B
:104D600003D0016841F001010160002010BD84F80A
:104D70004200DBE784F84300D8E784F84400D5E735
:104D8000002C0140000400400008004070B50446BB
:104D90000D460068002200F006FE2068026A41F21B
:104DA00011131A4240F2444106D1026A0A4203D169
:104DB000426C22F4004242642068026A1A4206D120
:104DC000026A0A4203D1016821F001010160012059
:104DD0003DB1042D08D0082D09D084F845000020ED
:104DE00070BD84F84200FAE784F84300F7E784F8DE
:104DF0004400F4E710B5040003D094F83D0010B16E
:104E000007E0012010BD002084F83C00204600F09F
:104E10001FF8022084F83D00211D206800F080FD6D
:104E2000012084F8460084F83E0084F83F0084F8AE
:104E3000400084F8410084F8420084F8430084F87C
:104E4000440084F8450084F83D00002010BD0000B7
:104E500008B500680B4A0C49904207D1C86940F078
:104E60000200C861C86900F0020009E0074A9042E8
:104E700007D1C86940F00400C861C86900F00400A7
:104E8000009008BD000400400010024000080040EF
:104E900090F83D10012901D001207047022180F8CF
:104EA0003D100168CA6842F00102CA6000680B49FF
:104EB000884208D0B0F1804F05D00949884202D01D
:104EC0000849884204D1816801F00701062903D00E
:104ED000016841F00101016000207047002C014091
:104EE00000040040000800400168CA6822F0010286
:104EF000CA6001680A6A41F211131A4207D10A6AAC
:104F00009B101A4203D10A6822F001020A600121B3
:104F100080F83D100020704770B5044690F83C00C2
:104F2000012817D0012584F83C50022084F83D0068
:104F30002068826822F0770222F47F42826008684B
:104F4000502830D00DDC20284DD005DC98B3102837
:104F50003BD148E0022070BD302844D0402834D1F5
:104F600039E0602828D0702806D0B0F5805F2CD0BA
:104F7000B0F5005F29D10AE0CB68D1E901212068B2
:104F800000F01EFD2068816841F0770109E0CB68E0
:104F9000D1E90121206800F013FD2068816841F407
:104FA0008041816011E0CA684968206800F0C2FD54
:104FB0005021206807E016E0CA684968206800F0C0
:104FC000CAFD6021206800F005FD84F83D500020F6
:104FD00084F83C0070BDCA684968206800F0AAFDEA
:104FE00040212068EFE7226801461046EBE7704752
:104FF00070B50446006801694FF00005C943890790
:1050000015D4C168C943890711D4E91E0161012083
:105010002077206880698007204602D0FFF7E7FFED
:1050200004E000F0D1F8204600F060F92577206810
:105030000169C943490717D4C168C943490713D453
:105040006FF004010161022020772068806910F46C
:10505000407F204602D0FFF7CAFF04E000F0B4F81A
:10506000204600F043F9257720680169C943090704
:1050700016D4C168C943090712D46FF00801016151
:10508000042020772068C0698007204602D0FFF7FF
:10509000AEFF04E000F098F8204600F027F92577ED
:1050A00020680169C943C90617D4C168C943C90644
:1050B00013D46FF010010161082020772068C069C7
:1050C00010F4407F204602D0FFF791FF04E000F08B
:1050D0007BF8204600F00AF9257720680169C9436A
:1050E000C90708D1C168C943C90704D1891E016134
:1050F000204600F085F920680169C943090609D4F2
:10510000C168C943090605D46FF0800101612046DA
:10511000FFF7B8FD20680169C943490609D4C16891
:10512000C943490605D46FF040010161204600F0F3
:1051300073F920680169C94389060BD4C168C94362
:10514000890607D46FF0200101612046BDE8704058
:10515000FFF799BD70BD000010B586B00021009129
:1051600001910291039100681349884221D11348AB
:10517000816941F004018161816901F004010491B8
:10518000816941F0080181618069022400F0080012
:105190000490C020CDE90004694609480394FFF754
:1051A00015F80320CDE90004694606480394FFF78B
:1051B0000DF806B010BD00000004004000100240D1
:1051C00000080140000C0140704770B5044690F89B
:1051D0003C000D4601280AD0012084F83C0042B171
:1051E000042A18D0082A2AD00C2A4DD139E00220EE
:1051F00070BD206800F0F6FB2068816941F008016D
:1052000081612068816921F00401816120688169E0
:105210002A69114311E0206800F010FC20688169C0
:1052200041F4006181612068816921F480618161BC
:10523000206881692A6941EA0221816124E02068AD
:1052400000F02AFC2068C16941F00801C1612068B2
:10525000C16921F00401C1612068C1692A69114353
:1052600011E0206800F044FC2068C16941F400614D
:10527000C1612068C16921F48061C1612068C16990
:105280002A6941EA0221C161002084F83C0070BD16
:1052900010B5040003D094F83D0010B107E00120E0
:1052A00010BD002084F83C00204600F01EF80220CB
:1052B00084F83D00211D206800F032FB012084F8B5
:1052C000460084F83E0084F83F0084F8400084F8EB
:1052D000410084F8420084F8430084F8440084F8D4
:1052E000450084F83D00002010BD70477047000065
:1052F00010B5044649B104290AD008290BD094F806
:10530000410001280AD0012010BD94F83E00F8E7C2
:1053100094F83F00F5E794F84000F2E7022041B32B
:10532000042929D008292AD084F8410001222068C4
:1053300000F02CFB13492068884203D1426C42F4F0
:10534000004242642068884208D0B0F1804F05D006
:105350000D49884202D00D49884204D1816801F08C
:105360000701062903D0016841F001010160002016
:1053700010BD84F83E00D9E784F83F00D6E784F8F2
:105380004000D3E7002C014000040040000800402A
:1053900030B504460D460068002200F0F7FA174ABF
:1053A00041F2111120688B10904209D1026A0A4221
:1053B00006D1026A1A4203D1426C22F400424264CE
:1053C0002068026A0A4206D1016A194203D10168C3
:1053D00021F00101016001203DB1042D08D0082D0C
:1053E00009D084F84100002030BD84F83E00FAE77F
:1053F00084F83F00F7E784F84000F4E7002C014010
:1054000000680349884202D1024804F017B9704786
:1054100000080040A80200207047704710B5040043
:1054200014D0242084F83D002068C16821F4005184
:10543000C160204600F046F90020206484F83D0059
:1054400084F83E0044F8300F207310BD012010BDD9
:1054500070470000F8B5026804461068D1685369C7
:1054600010F00F0F4FF0000553D003F0010601F4C8
:10547000907737435FD0C20705D0CA0503D5226CA9
:1054800042F001022264420705D5DA0703D0226CFC
:1054900042F002022264820705D5DA0703D0226CAB
:1054A00042F004022264020707D501F020023243D1
:1054B00003D0226C42F008022264226C002A34D00D
:1054C000800604D5880602D5204600F0FAFB206845
:1054D0004069216CC0F38010090700D430B3204626
:1054E00000F0CEFB2068416949061BD5416921F0D7
:1054F00040014161A06BA8B158494163A06BFEF720
:10550000F7FC002811D0A06B416B01B0BDE8F04062
:10551000084783060FD58B060DD52046BDE8F84019
:1055200000F0CFBB2046FFF793FFF8BD2046FFF702
:105530008FFF2564F8BD266B2023012E52D1C606AD
:1055400050D5CE064ED51068506800905069400680
:105550002AD5A16B086840680004000CEAD0A68D2B
:105560008642E7D9E0858869202818D0D06820F4E1
:105570008070D0602068416921F00101416120689C
:10558000416921F04001416184F83E302563206883
:10559000C16821F01001C160A06BFEF786FCA08DF0
:1055A000E18D401A81B219E0A08DE18D401A81B2DF
:1055B000E08D0028BED00029BCD0D06820F49070C7
:1055C000D0602068426922F00102426184F83E30D6
:1055D00025632068C26822F01002C2602046FFF7EF
:1055E0001CFFF8BD05062BD50D0629D594F83D0006
:1055F0002128F6D1A068B0F5805F01D12069B0B153
:10560000206A411C2162216800784860E08C401EBD
:105610000004000CE084E4D12068C16821F080011E
:10562000C1602068C16841F04001C160F8BD206AD6
:105630000088C0F308005060206A801C2062E5E703
:105640004006F3D54806F1D5D168204621F0400147
:10565000D16084F83D3000F0DFF8F8BD7B5B0008D6
:1056600070B5040004D094F83D00002510B106E0A8
:10567000012070BD84F83C50204600F039F8242009
:1056800084F83D002068C16821F40051C1602046C3
:1056900000F072FB2068016921F4904101612068EB
:1056A000416921F02A0141612068C16841F400513B
:1056B000C1602564202084F83D0084F83E0000206D
:1056C00070BD000000680749884209D10648816919
:1056D00021F4804181614FF4C0610448FEF7E8BCC9
:1056E00070470000003801400010024000080140EF
:1056F00030B585B0002400940194029403940068AE
:105700001449884224D11448816941F4804181615F
:10571000816901F480410491816941F00401816152
:1057200080690E4D00F0040004904FF4007000906A
:10573000022001900320039069462846FEF746FDAB
:105740002815CDE90004694628460294FEF73EFD7F
:1057500005B030BD00380140001002400008014093
:1057600090F83E30202B0ED159B152B190F83C3018
:10577000012B08D0012380F83C300023036300F0A4
:1057800057BB0120704702207047D83001F0D4BFCA
:10579000D83001F0D1BF0000F7B5044690F83D00C5
:1057A000202831D1019969B362B394F83C000128F3
:1057B0002AD0012084F83C002162A284E2840025E2
:1057C0002564212084F83D00636B10489862636B68
:1057D0000F48D862636B0F481863606B13464563CC
:1057E0002668606B321DFEF72BFC21686FF04000CD
:1057F000086084F83C502068416941F080014161B3
:105800000020FEBD0120FEBD0220FEBD495C000857
:10581000775C00088B5B000870B500F1D805044682
:10582000FAF736FD0146D4F8900044680846FAF7C6
:1058300033FD002C05D12846BDE87040042104F05A
:1058400031BB70BD704710B504F0A6FD4FF0E020ED
:105850000069C00301D5FEF7F5FD06F0A5F8BDE827
:10586000104004F0B7BD000030B593B02821684661
:10587000FAF7E7FF14210AA8FAF7E3FF00240F94D0
:105880000920012110940090119412944FF480305B
:1058900004910691CDE901040225CDE907500001EC
:1058A00009906846FFF74EF818B1262111A000F0C4
:1058B00061FB0F20CDE90A054FF48060CDE90C4073
:1058C00002210AA80E94FEF727FF18B1342109A07F
:1058D00000F050FB4FF4004011900F950FA8FEF719
:1058E000A7FE002803D03A2102A000F043FB13B02A
:1058F00030BD0000626F6172645C626F6172642E21
:10590000630000007047000010B504F045FD034837
:10591000FFF76EFBBDE8104004F05CBD10030020F3
:10592000F0B50268164C174D174E4FF08047A04255
:1059300005D0B84203D0A84201D0B04203D122F032
:1059400070034A681A43A04205D0B84203D0A84267
:1059500001D0B04203D122F44073CA681A434B69A4
:1059600022F080021A4302608A68C2620A68826278
:10597000A04201D10969016301214161F0BD00002C
:10598000002C0140000400400008004010B501F068
:105990001F010123046A8B409C430462036A8A400E
:1059A0001343036210BD10B501F01F010423046A04
:1059B0008B409C430462036A8A401343036210BD18
:1059C00010B5846842EA032224F47F440A43224348
:1059D000826010BD826822F070020A4342F0070123
:1059E0008160704730B5026A22F001020262036AE8
:1059F0004268846924F073050C682C4323F0020587
:105A00008B682B430C4DA84206D123F00805CB68C8
:105A100043EA050323F0040307D14D6922F44072E1
:105A200045EA02058A6942EA0502426084614968E2
:105A30004163036230BD0000002C014030B5026AB2
:105A400022F010020262026A436884690D6824F43D
:105A5000E64444EA05248D6822F0200242EA051259
:105A60000C4DA84206D1CD6822F0800242EA051210
:105A700022F0400207D14D6923F4406343EA8503D5
:105A80008D6943EA850343608461496881630262EA
:105A900030BD0000002C014030B5026A22F4807253
:105AA0000262036A4268C46923F4007324F0730538
:105AB0000C682C438D6843EA05230C4DA84206D19F
:105AC000CD6823F4006343EA052323F4806307D100
:105AD0004D6922F4405242EA05128D6942EA0512EC
